:020000040801F1
:10000000A0FC0120B1010108B9010108B5020108F5
:10001000BD010108BF010108C10101080000000085
:10002000000000000000000000000000C301010803
:10003000C501010800000000030201084193020805
:10004000CB010108CB010108CB010108CB0101085C
:10005000CB010108CB010108CB010108CB0101084C
:10006000CB010108CB010108CB010108CB0101083C
:10007000CB010108A1DA0108CB010108CB0101087D
:10008000CB010108CB010108CB010108CB0101081C
:10009000CB010108CB010108CB010108CB0101080C
:1000A000CB010108CB010108CB010108CB010108FC
:1000B000D594020811950208CB010108CB01010873
:1000C000CB010108CB010108CB010108558F0208C3
:1000D000CB010108619C0208CB010108CB0101089A
:1000E00001DE0108CB010108CB010108CB010108A9
:1000F000CB010108CB010108CB010108CB010108AC
:10010000CB010108CB010108CB010108CB0101089B
:10011000CB010108CB010108CB010108CB0101088B
:10012000CB010108CB010108CB010108CB0101087B
:10013000CB010108CB010108CB010108CB0101086B
:10014000CB010108CB010108CB010108CB0101085B
:10015000CB010108CB010108CB010108CB0101084B
:10016000CB010108CB010108CB010108CB0101083B
:10017000CB010108CB010108CB010108CB0101082B
:10018000CB010108CB010108CB010108CB0101081B
:10019000CB010108CB010108DFF810D000F01AFCF8
:1001A00000480047910A0108AFF30080A0FC01203D
:1001B0000648804706480047FEE7FEE7FEE7FEE701
:1001C000FEE7FEE7FEE7FEE7FEE7FEE7059402082E
:1001D00099010108EFF3108072B6704780F3108820
:1001E0007047424A1368012B04D04FF0010313609B
:1001F0003F4A10603F4A11603F484FF08051016014
:100200007047EFF3108272B63848016851B34FF06F
:10021000000101603648016891B1EFF309811EF0D9
:10022000100F08BF21ED108B21E9F00F4FF00004F3
:100230001EF0100F08BF012441F8044D0068016052
:100240002C490968096808C9B1E8F00F002B18BFEC
:10025000B1EC108B81F309884EF0100E002B18BF03
:100260002EF0100E82F310884EF0040E70472149D4
:100270000860EFF3148222F0040282F314881C4910
:100280004FF00000086019494FF0010008601B485A
:100290001B49D0F8002041EA0201016016484FF0E6
:1002A0008051016017480068006880F3088861B6D3
:1002B00062B670471EF0040F0CBFEFF30880EFF337
:1002C000098020E9F00F40F804ED40F804ED1EF03D
:1002D000040F0CBF80F3088880F3098800B51EF076
:1002E0001DF85DF804EB4EF0040E7047800100200D
:1002F000780100207C01002004ED00E020ED00E00A
:100300000000FFFF08ED00E040EA01039B0703D077
:1003100009E008C9121F08C0042AFAD203E011F844
:10032000013B00F8013B521EF9D27047D2B201E006
:1003300000F8012B491EFBD270470022F6E710B5EA
:1003400013460A4604461946FFF7F0FF204610BD43
:10035000421E12F8013F002BFBD111F8013B02F8BD
:10036000013B002BF9D1704710B5044604E00B782F
:1003700000F8013B03B1491C521EF8D2204610BDC3
:10038000421C10F8011B0029FBD1801A704730B5C0
:1003900004460020034600E05B1C934203D2E05C6D
:1003A000CD5C401BF8D030BD034611F8012B00F89E
:1003B000012B002AF9D11846704730B505460020B8
:1003C000034600E05B1C934205D2EC5CC85C201A3B
:1003D00001D1002CF6D130BD2DE9FE4F81EA030496
:1003E00004F0004421F0004100944FF0000B23F092
:1003F000004350EA01045ED052EA03045BD0C3F329
:100400000A54C1F30A552C44A4F2F3340194A0FB1E
:100410000254C1F3130141F48011C3F3130343F4F5
:10042000801301FB024400FB034E840A970A44EA4E
:10043000815447EA8357A4FB076802958D0A05FBA0
:1004400007854FEA932C04FB0C542705029D4FEAC5
:10045000065847EA1637B5EB08056EEB070C870E12
:10046000920E47EA811742EA8312A7FB0201B6EB1C
:100470000B0164EB00042B0D43EA0C335E1844EBD4
:100480001C50DA465146E7FB0201C5F313044FEA5C
:100490000B3343EA14534FEA0432019C43EA060348
:1004A000A4F10C040294009CCDE900B400F085F99D
:1004B00003B0BDE8F08F00200146F9E72DE9F04DCB
:1004C00081EA030404F0004B21F0004514464FF08C
:1004D000000A23F0004150EA050220D054EA01024C
:1004E0001DD0C5F30A570246C5F31303C1F3130029
:1004F000C1F30A5640F4801543F48013A7EB0608B5
:10050000101BD64608F2FD3873EB050002D308F144
:10051000010801E092185B41B8F1000F03DA0020F6
:100520000146BDE8F08D00204FF480110646844658
:100530000EE0171B73EB050705D3121B63EB0503D6
:1005400006434CEA010C49084FEA300092185B411F
:1005500050EA0107EDD152EA030012D082EA04000A
:1005600083EA0501084305D0101BAB4106D20122E6
:10057000002306E000224FF0004302E06FF001028A
:1005800053101AEB06004CEB085110EB0A0041EB3C
:100590000B01BDE8F04D00F001B90EB540F233415A
:1005A00002910021CDE900110A460B4600F005F941
:1005B00003B000BDC1F30A5210B5C1F3130140F2FC
:1005C000FF3341F480119A4201DA002010BD40F25D
:1005D00033439A42A2F2334203DC524200F097F8CE
:1005E00010BD904010BD000030B5041E71F1000434
:1005F00004DB4FF00044404264EB0101141E73F130
:10060000000405DB1C464FF00043524263EB040339
:100610008B4208BF824230BD30B5041E71F1000428
:1006200004DB4FF00044404264EB0101141E73F1FF
:10063000000405DB1C464FF00043524263EB040309
:10064000994208BF904230BD01F0004330B421F020
:10065000004150EA010206D00A0DA2F56072C1F312
:100660001301002A02DC30BC00207047440F44EA2A
:10067000C104C100E01830BC00EBC25000F057B814
:1006800030B50B46014600202022012409E021FA62
:1006900002F59D4205D303FA02F5491B04FA02F55F
:1006A0002844151EA2F10102F1DC30BD2DE9F05FF6
:1006B0000546002092469B468846064681464024D1
:1006C0001BE0284641464746224600F020F85346A4
:1006D0005A46C01A914110D311461846224600F0DE
:1006E0008BF92D1A67EB01084F46224601200021A5
:1006F00000F082F917EB00094E41201EA4F101041D
:10070000DFDC484631462A464346BDE8F09F202AB2
:1007100004DB203A21FA02F00021704721FA02F3AB
:10072000D040C2F120029140084319467047002989
:10073000A8BF7047401C490008BF20F00100704767
:1007400010B4B0FA80FC00FA0CF050EA010404BFC7
:1007500010BC704749B1CCF1200421FA04F411FA1D
:100760000CF118BF012121430843A3EB0C01CB1D61
:100770004FEA00614FEA102042BF002010BC7047D2
:1007800000EBC35010440029A4BF10BC7047401CAC
:10079000490008BF20F0010010BC704710B5141EBE
:1007A00073F1000408DA401C41F1000192185B412A
:1007B0001A4301D120F0010010BD2DE9F04D924601
:1007C0009B4611B1B1FA81F202E0B0FA80F2203218
:1007D000904600F011F904460F4640EA0A0041EA4B
:1007E0000B0153465A46084313D0114653EA010001
:1007F00019D0C8F140025046FFF789FF05460E4662
:1008000050465946424600F0F7F8084305D001200B
:1008100004E020463946BDE8F08D0020054346EA55
:10082000E0762C4337430A986305E40AA0EB0800FE
:100830000022FD0A44EA47540A3002D5002001464E
:10084000E9E7010510196941DDE908450019694129
:10085000BDE8F04DA2E72DE9FE4F804681EA030096
:10086000C00F0C46009021F0004123F00045B8EB8A
:100870000200A94105D24046214690461C460B463F
:10088000024623F00040104347D0270DC7F30A006B
:10089000C3F30A510290401A019040286BDAC3F367
:1008A000130040F4801B0098924620B10023D2EB45
:1008B000030A63EB0B0B01985946C0F14002504606
:1008C00000F09AF806460D4650465946019A00F047
:1008D000A2F810EB08006141002487EA115284EA73
:1008E000E7731A4340D0009A62B3019A012A4FEA93
:1008F000075215DC001B61EB02014FF0004202EAD7
:100900000752CDE90042001C41F5801132462B46CA
:10091000FFF753FF03B0BDE8F08F40462146F9E7EB
:10092000001B61EB0201001C41F5801300185B41C4
:100930002018A2F5001747EB030140EAD570B6195D
:100940006D4111E06D084FEA360645EAC0754FEA81
:100950000752001B61EB0201001C41F580114908A0
:100960004FEA30000019514132462B4603B0BDE832
:10097000F04FFFF713BF0098012240000023D0EB97
:10098000020263EBE073009821464FEAE074B8EB93
:10099000000061EB0401E9E783F000435BE781F0CD
:1009A000004158E7C1F30A52C1F3130140F2FF338B
:1009B00041F480119A4202DA00200146704740F269
:1009C00033439A42A2F2334202DC5242FFF79FBE07
:1009D00000F012B8064C074D06E0E06840F0010355
:1009E00094E8070098471034AC42F6D3FFF7D8FBE1
:1009F000BC2B0308DC2B0308202A04DB203A00FA76
:100A000002F1002070479140C2F1200320FA03F365
:100A1000194390407047202A06DBCB17203A41FA51
:100A200002F043EAE07306E041FA02F3D040C2F17B
:100A30002002914008431946704770B58C1810F891
:100A4000015B15F0070301D110F8013B2A1106D113
:100A500010F8012B03E010F8016B01F8016B5B1E2D
:100A6000F9D12B0705D40023521E0DD401F8013B08
:100A7000FAE710F8013BCB1A921C03E013F8015B74
:100A800001F8015B521EF9D5A142D8D3002070BDF8
:100A900010B51FF0C5FA002010BD10B5044604B90A
:100AA00010BD0020E07020460FF01EF900BFF7E7F0
:100AB00010B5044604B910BD0020607020460FF048
:100AC0003DF900BFF7E7000010B50448006818B111
:100AD000024800681EF08AFB10BD0000580100208B
:100AE00038B504466946204614F0F6F908B90020E6
:100AF00038BD9DF80010012014F010FB0120F7E72D
:100B000070B50446DDE90456217062706360A5602B
:100B1000E660002070BD2DE9F04105460E46144602
:100B20001F46DDF81880286900B92C612660E7802F
:100B300084F804802146284600F0EAF8686910B17C
:100B40006869C0F880406C610020C4F88000BDE88E
:100B5000F0812DE9F84380460C4615461E460027D5
:100B60000EB1022E32D120790E282DD2DFE800F00E
:100B7000070E080F2C09100A0B0C0D2C2C1100BFAE
:100B800000BF00BF00BF00BF00BF00BF00BF00BF6D
:100B900000BF28460CF046FEE06E20B1E06EA84291
:100BA00001D0E16EA966E5666C66287905280AD150
:100BB0000021686CC1840020034604222146009075
:100BC000404604F0B6F900E000BF00BF012E01D09E
:100BD000022E28D1207905280CD005DC48B1022846
:100BE0000CD004281DD106E0072806D00E2818D105
:100BF00002E000BF00BF00BF00BF00BF28460CF0EE
:100C0000E6FDA06F20B1A06FA84201D0A16F696777
:100C1000A5672C672879052802D10021A86C81805E
:100C200000E000BF00BF0EB1022E28D120790F28AE
:100C300024D2DFE800F008110B121F090F0A0C0D77
:100C40000E232310200000BF00BF00BF00BF00BF65
:100C500000BF00BF00BF00BF00BFE06D38B1E76D4F
:100C600000E0FF6DF86D0028FBD1EF6501E0E16D5C
:100C7000E96503E000BF0021E16500BF00BF334626
:100C80002A462146404606F039FC0020BDE8F8839C
:100C900070B504460025204606F02EFF054628467E
:100CA00070BD70B504460D462946204606F038FF53
:100CB000002070BD10B504462079072824D2DFE853
:100CC00000F0040B12161A1B1F00204603F0E5FB70
:100CD000204603F0EFFB18E0204603F0DEFB204641
:100CE00003F0E8FB11E0204603F0E4FB0DE02046B2
:100CF00003F0E0FB09E008E0204603F0D2FB04E04B
:100D0000204603F0CEFB00E000BF00BF002010BD76
:100D100070B505460C46FF217D200155FF2084F863
:100D20007C007E2001557F2001550020A06000211D
:100D3000E16021616161A161E16121626162A162A1
:100D4000E16221636163A163E16321646164A16481
:100D5000E1642165E16521666166A166E16621675E
:100D60006167A16720790F284BD2DFE800F0084BBC
:100D7000769BC0CDFDFCFBFA4A4A4AF9F80004F123
:100D800008020221284604F073FD04F10C0201213F
:100D9000284604F06DFD04F110020121284604F0FC
:100DA00067FD04F114020121284604F061FD04F1FD
:100DB00018020121284604F05BFD04F11C02012108
:100DC000284604F055FD04F120020121284604F0D4
:100DD0004FFD04F134021E21284604F049FD04F1C0
:100DE0003C020821284604F043FD04F144022A2174
:100DF000284604F03DFD04F148021821284604F07D
:100E000037FD67E104F108020221284604F030FDB5
:100E100004F10C020121284604F02AFD04F110021D
:100E20000121284604F024FD04F114020121284682
:100E300004F01EFD04F118020121284604F018FDFB
:100E400004F134021E21284604F012FD04F144028C
:100E50002A21284604F00CFD3CE104F1080202219D
:100E6000284604F005FD04F114020121284604F08F
:100E7000FFFC04F118020121284604F0F9FC04F1FA
:100E800034021E21284604F0F3FC04F144022A2116
:100E9000284604F0EDFC04F148021821284604F02D
:100EA000E7FC17E104F108020221284604F0E0FC07
:100EB00004F114020121284604F0DAFC04F11802BE
:100EC0000121284604F0D4FC04F134021E212846F6
:100ED00004F0CEFC04F144022A21284604F0C8FCA8
:100EE00004F158020321284604F0C2FCF2E004F1A8
:100EF00008020221284604F0BBFC04F14802182134
:100F0000284604F0B5FCE5E004F108020221284679
:100F100004F0AEFC04F124020121284604F0A8FCF0
:100F200004F128020121284604F0A2FC04F12C025D
:100F30000121284604F09CFC04F1300201212846DE
:100F400004F096FC04F11C020121284604F090FCF8
:100F500004F120020121284604F08AFC05E0ACE0FF
:100F60008CE07EE070E04AE018E004F138021C21D9
:100F7000284604F07DFC04F140020B21284604F0D1
:100F800077FC04F144022A21284604F071FC04F1A4
:100F900048021821284604F06BFC9BE004F108028B
:100FA0000221284604F064FC04F1240201212846B1
:100FB00004F05EFC04F128020121284604F058FCEC
:100FC00004F12C020121284604F052FC04F1300205
:100FD0000121284604F04CFC04F138021C2128466B
:100FE00004F046FC04F144022A21284604F040FCA7
:100FF00004F148021821284604F03AFC6AE004F1A2
:1010000008020221284604F033FC04F12C020121DD
:10101000284604F02DFC04F130020121284604F09A
:1010200027FC04F138021C21284604F021FC04F1BD
:1010300044022A21284604F01BFC04F1480218212E
:10104000284604F015FC45E004F108020221284678
:1010500004F00EFC04F14C021C21284604F008FCAC
:1010600038E004F108020221284604F001FC04F1F2
:1010700050021E21284604F0FBFB2BE004F108027D
:101080000221284604F0F4FB04F12C020121284639
:1010900004F0EEFB04F130020121284604F0E8FBE5
:1010A00004F144022A21284604F0E2FB04F1540230
:1010B0000321284604F0DCFB0CE004F108020221C5
:1010C000284604F0D5FB04F148021821284604F014
:1010D000CFFB00BF00BF002070BD70B505462C6976
:1010E00004E02046FFF7E6FDD4F88040002CF8D15C
:1010F000002070BD70B505462C6986E0D5F8B8169D
:1011000028698847D5F8B41628698847D5F8BC16E9
:101110002869884720790F2870D2DFE800F0080995
:1011200032333C41515A656A6F6F6F5B600000BF9C
:10113000E06806782146284614F0D8F8214628466B
:1011400003F0C1F932462146284617F0CFF960690D
:101150000678204614F06DF92146284603F0DFFC9E
:1011600032462146284617F095FBE069067821466D
:10117000284615F0C1FA32462146284617F0B8F83D
:101180003CE000BF2146284614F09CF82146284642
:1011900015F0C2FA32E02146284614F083F82DE01B
:1011A000606A06782146284614F0DDF82146284674
:1011B00003F0D4FA32462146284617F06DFA1DE0B6
:1011C0002146284614F0CFF82146284603F0C6FAF7
:1011D00014E000BF2146284614F07EF80EE02146B8
:1011E000284614F067F809E02146284614F050FA22
:1011F00004E02146284614F03BF900BF00BFD4F8B4
:10120000800000B904E0D4F88040002C7FF476AF71
:1012100000BF002070BD00002DE9F04F0D461746BD
:101220000024A046A1460026A246A34600BF2BE00C
:1012300008EBC800482101EB4000385C00BB08EB1C
:10124000C80001EB4000401C385CC8B908EBC8007E
:1012500001EB4000801C385C90B908EBC80001EB42
:101260004000C01C385CFD280AD108EBC80001EB27
:1012700040000930385C00EB80004000A5F86200B7
:1012800008F1010000F0FF08B8F1030FD0DB0022E5
:101290000221384602F0C0F90446260A04F0FF0A8B
:1012A0004FF000081AE0701C4044385C00F07F0BDF
:1012B0004FF000090BE0654810F80900584502D1CD
:1012C000012005F8090009F1010000F0FF09B9F15A
:1012D000170FF0DB08F1010000F0FF08D045E2DB5A
:1012E00000220121384602F097F90446260A04F04C
:1012F000FF0A2EB1334652463946284600F078FCA4
:1013000000220321384602F087F90446260A04F039
:10131000FF0A26B132463946284601F04BFA01222F
:101320000321384602F078F90446260A04F0FF0A41
:1013300026B122463946284601F0AEFC97F88300D4
:1013400000F0100028B18620405D401CC1B286200C
:10135000415597F8830000F0200028B18720405DB8
:10136000401CC1B28720415500220721384602F0B7
:1013700053F90446260A04F0FF0A26B132463946DC
:10138000284601F075F806220721384602F044F994
:101390000446260A04F0FF0A26B13246394628469A
:1013A00000F0DAFE0E220721384602F035F9044635
:1013B000260A04F0FF0A26B132463946284601F0D3
:1013C000E2FF05220721384602F026F90446260AE4
:1013D00004F0FF0A26B132463946284600F08DFD5A
:1013E0000F220721384602F017F90446260A04F0B6
:1013F000FF0A26B132463946284601F08DFE012209
:101400000721384602F008F90446260A04F0FF0ACC
:1014100026B132463946284601F0B2FDB5F86200E1
:10142000B5F86410884204DDB5F86200A5F86400E0
:1014300009E0B5F86200B5F86410884203DAB5F83F
:101440006400A5F86200BDE8F08F000034170308BF
:1014500070B50546049C0120012A02D1CEB206B91E
:101460000020012C02D1DEB206B9002070BD70B59B
:101470000446002000BF06E01518655D1D441618DF
:10148000A555451CA8B28842F6DB70BDF0B50646EE
:10149000DDE90545002000BF07E01F18D75D05EB1B
:1014A000000C04F80C70471CF8B28842F5DBF0BD64
:1014B0002DE9FF4F8DB09B461A9C00200C90804672
:1014C0008146002600250B9000270A90099008907D
:1014D00007900690059082460490012004F87E0F44
:1014E0000220A0700320E0707E3C0F984078FF2817
:1014F00006D10F9890F88000022801D101200590B4
:101500009BF80100FF2805D19BF88000022801D13B
:101510004FF0010A059830B9BAF1000F03D101204C
:101520000A900990089000200C908046002684259F
:10153000002202210F9802F06FF80C900022022185
:10154000584602F069F88046CDE900B8CDE9024579
:10155000DDE90C30DDE90E1200F02CFE0646002E0F
:1015600002DD681C3044C7B200200C908046002683
:101570003D46002201210F9802F04EF80C90002207
:101580000121584602F048F880465B46CDE90084C8
:1015900002950C9ADDE90E0100F0EBF90646002EEB
:1015A00002DD681C3044C7B200200C908046002643
:1015B0003D46002203210F9802F02EF80C900022E5
:1015C0000321584602F028F88046CDE900B8CDE95D
:1015D0000245DDE90C30DDE90E1200F085FF06461C
:1015E000002E02DD681C3044C7B200200C908046FB
:1015F00000263D460A9801280AD15B46CDE90084C1
:1016000002950C9ADDE90E0101F0D5F9064621E0BC
:10161000012203210F9801F0FFFF0C90012203210A
:10162000584601F0F9FF80464346CDF800A0059AE0
:101630000C990E98FFF70CFF04900498012809D12B
:101640005B46CDE9008402950C9ADDE90E0101F0BC
:10165000B2F90646002E02DD681C3044C7B20020F5
:101660000C90804600263D46002207210F9801F08D
:10167000D3FF0C9000220721584601F0CDFF804691
:101680005B46CDE9008402950C9ADDE90E0100F07D
:101690006DFE0646002E02DD681C3044C7B20020F5
:1016A0000C90804600263D46052207210F9801F048
:1016B000B3FF0C9005220721584601F0ADFF80468C
:1016C0004346CDF800A0059A0C990E98FFF7C0FE8E
:1016D00004900498012809D15B46CDE90084029565
:1016E0000C9ADDE90E0100F071FB0646002E02DDCA
:1016F000681C3044C7B200200C90804600263D464E
:10170000089801280AD15B46CDE9008402950C9A1D
:10171000DDE90E0100F0BAFC064621E006220721B1
:101720000F9801F079FF0C9006220721584601F02E
:1017300073FF80464346CDF800A0059A0C990E9899
:10174000FFF786FE04900498012809D15B46CDE995
:10175000008402950C9ADDE90E0100F097FC064624
:10176000002E02DD681C3044C7B200200C90804679
:1017700000263D46099801280AD15B46CDE9008440
:1017800002950C9ADDE90E0101F016FC06466EE0AA
:10179000059818B902200790069009E0BAF1000FE9
:1017A00003D101200790069002E0002007900690E8
:1017B000059801281ED10E2207210F9801F02CFF59
:1017C0000C900C98C0B288B90F2207210F9801F035
:1017D00023FF0C900C98C0B260B10798401CC0B2B7
:1017E00007900698401CC0B2069003E00698401C83
:1017F000C0B20690BAF1010F1ED10E220721584641
:1018000001F00AFF804608F0FF0088B90F22072187
:10181000584601F001FF804608F0FF0060B10798CC
:10182000401CC0B207900698401CC0B2069003E06E
:101830000698401CC0B20690079802280AD15B4661
:10184000CDE9008402950C9ADDE90E0101F0B4FBAC
:1018500006460CE00698022809D15B46CDE90084D3
:1018600002950C9ADDE90E0101F0FAFC0646002E05
:1018700002DD681C3044C7B200200C908046002670
:101880003D46012207210F9801F0C6FE0C9001226F
:101890000721584601F0C0FE80464346CDF800A01F
:1018A000059A0C990E98FFF7D3FD0490049801282F
:1018B00009D15B46CDE9008402950C9ADDE90E0161
:1018C00000F080FB0646002E02DD681C3044C7B2E3
:1018D000A7F1800084F88200C7F1FD00122190FB7F
:1018E000F1F0C0B20B900B98042801DD04200B909E
:1018F0000B9804F8830F207840F0100020702078B7
:1019000040F020002070207840F0400020702078C7
:1019100040F0800004F883094FF000090FE009EB64
:10192000C90007EB4000C3B209F10100C1B2224671
:101930000E9801F093FD09F1010000F0FF090B98EA
:101940008145ECDB12210B9801FB0070C7B2C7F197
:10195000FF064FF0000907E0002007EB0901605483
:1019600009F1010000F0FF09B145F5DB11B0BDE858
:10197000F08F2DE9FF4F81B004468B46DDE90F67FC
:1019800003984FEA10290398C0B200904FF0000866
:10199000C24600257F2084F825007F21262001559E
:1019A0002720015528200155292001552A200155BD
:1019B00007212B2001557F212C20015502212D20AC
:1019C000015506212E2001557E212F2001557F2112
:1019D000302001553120015532200155072084F86F
:1019E00033000521342001550121352001553620D1
:1019F0000155372001553820015505213920015561
:101A000001213A20015505213B20015507213C20A9
:101A100001553D2001553E2001553F200155012132
:101A200040200155072084F84100502142200155F3
:101A3000432001554420015545200155C021462031
:101A400001554720015548200155002149200155E5
:101A500001214A20015500214B20015501214C2034
:101A600001554D20015500214E2001554FF0010A2E
:101A7000B9F1000F33D00AF1010000F0FF0A002095
:101A8000E07521766176A176E17621776177A1779D
:101A9000E1772020015521200155222001552320E6
:101AA0000155242001554B4659462046009A00F026
:101AB0009FF800BF09E009EB0500401C1BF800106F
:101AC0007819401C3154681CC5B200988542F2DB7D
:101AD000E07D002842D0E07D401CE0753EE0012022
:101AE000E0750121217661772020015521200155E3
:101AF000222001554FF000082AE004F1170010F8E9
:101B00000800504520D1681CC5B204F1330010F81C
:101B1000081008F1010041EAC000C1B205EB450020
:101B20003844801E315404F1250010F8081005EBEC
:101B300045003844401E315404F1410010F80800BB
:101B400005EB45013944705408F1010000F0FF082D
:101B5000B8F10E0FD1DB05EB4500C5B205F1200051
:101B6000F05583217819401C315400217819C01C8C
:101B700031547819001D3154B9F1000F18D0E07DAF
:101B8000504530DB83217819401C315409EB0500A6
:101B9000801C1BF800107819801C31540021781922
:101BA000C01C31547819001D3154281DC5B21AE0EB
:101BB000E07D504517DB94F83300072804DB5F21F4
:101BC0007819801C31540CE094F83300052804DBAC
:101BD0000F217819801C315403E001217819801CF1
:101BE0003154281DC5B2284605B0BDE8F08F00006D
:101BF0002DE9F04F88B004460D461646002100201E
:101C00000027804681460022824684468346CDF8DE
:101C100010B0CDF814B0CDF818B0CDF81CB0CDF898
:101C200000B0CDF804B0CDF808B0CDF80CB04FF04E
:101C3000030B96FBFBFB0BF0FF0703F1010BB34417
:101C400015F80BB00BF0E00BBBF1200F0CD103F13A
:101C5000010BB34415F80BB00BF01F0B4FF0030E44
:101C60009BFBFEFB0BF0FF0807EB080B0BF0FF09DB
:101C700000217CE0B94205DA01EB410B9B440BF0FB
:101C8000FF020AE003EB060BA1EB070E0EEB4E0E74
:101C9000F3440BF1010B0BF0FF0202F1010B15F8FD
:101CA0000BB00BF0780A02F1010B15F80BB00BF03A
:101CB000070C002055E0DFF810B11BF800B0D34549
:101CC0004BD10DF1100B1BF800B0BBF1000F07D189
:101CD0004FF0010B0DF1100E0EF800B00DF800C022
:101CE00004F1250B1BF800B002F1020E15F80EE00E
:101CF0000BEA0E0B04F1250E0EF800B01DF800B033
:101D0000E34501DA0DF800C050B994F841B002F192
:101D1000030E15F80EE00BEA0E0B84F841B01CE040
:101D2000072812DA02F1030B15F80BB004F1410E8B
:101D30001EF800E0F34510DA02F1030B15F80BB0C2
:101D400004F1410E0EF800B007E002F1030B15F8A4
:101D50000BB004F1410E0EF800B000F1010B0BF0D6
:101D6000FF000E28A7DB01F1010B0BF0FF01494535
:101D700080DB002122E00DF1100B1BF801B0BBF15C
:101D8000000F17D004F1170B1BF801B00BF1010B7A
:101D900004F1170E0EF801B01DF801B004F1330E76
:101DA0001EF801E0F34505DA1DF801B004F1330E29
:101DB0000EF801B001F1010B0BF0FF010E29DADB87
:101DC00008B0BDE8F08F0000261703082DE9FF4F8B
:101DD000064692469B46DDE90E544FEA1A280D98B6
:101DE0004FEA10290027012086F891000121922056
:101DF0008155962081559720815598208155B8F1BD
:101E0000000F04D042463046019900F076F8B9F14F
:101E1000000F04D04A465946304600F06EF80127BC
:101E2000B8F1000F01D0781CC7B2B9F1000F01D092
:101E3000781CC7B296F89100B84205D1A01C285C66
:101E400040F00101A01C29549220805DB84205D1C8
:101E5000A01C285C40F00201A01C29549320805D46
:101E6000B84205D1A01C285C40F00401A01C2954F4
:101E70009420805DB84205D1A01C285C40F0080188
:101E8000A01C29549520805DB84205D1A01C285C77
:101E900040F01001A01C29549620805DB84205D165
:101EA000A01C285C40F02001A01C29549720805DD4
:101EB000B84205D1A01C285C40F04001A01C295468
:101EC0009820805DB84205D1A01C285C40F08001BC
:101ED000A01C29549920805DB84205D1E01C285CE3
:101EE00040F08001E01C2954E32028550521601CA6
:101EF0002954032004B0BDE8F08F10B5931CCB5CCF
:101F000003F0010323B190F891305B1C80F891300D
:101F1000931CCB5C03F002032BB192231B5C5B1C74
:101F2000DCB292231C54931CCB5C03F004032BB152
:101F300093231B5C5B1CDCB293231C54931CCB5C73
:101F400003F008032BB194231B5C5B1CDCB29423CD
:101F50001C54931CCB5C03F010032BB195231B5C2A
:101F60005B1CDCB295231C54931CCB5C03F0200358
:101F70002BB196231B5C5B1CDCB296231C54931C78
:101F8000CB5C03F040032BB197231B5C5B1CDCB2E2
:101F900097231C54931CCB5C03F080032BB1982334
:101FA0001B5C5B1CDCB298231C54D31CCB5C03F081
:101FB00080032BB199231B5C5B1CDCB299231C545E
:101FC00010BD00002DE9FF4F84B006468B469146B8
:101FD000DDE912744FEA192509F0FF00039011980A
:101FE0004FEA102A00200290804696F89A00401C82
:101FF00086F89A0035B12A465946304600F0C0FFAF
:10200000A81CC5B2BAF1000F04D052463046079959
:1020100000F0B6FF4FF001081DB108F1010000F01B
:10202000FF08BAF1000F03D008F1010000F0FF082B
:1020300096F89A0040451BD1B8F1010F0CD1A01CB5
:10204000C0B20023104A0A21CDE900703046FFF7E4
:102050001DFA192002900BE003980290A01CC0B258
:102060002B465A46CDE9007030460399FFF70EFA29
:10207000029840F0E00038550121601C3954029864
:1020800008B0BDE8F08F00001C1703082DE9FF4FD2
:10209000064692469B46DDE90E544FEA1A280D98F3
:1020A0004FEA10290027012086F88D0001218E209B
:1020B00081558F20815590208155B8F1000F04D0B3
:1020C00042463046019900F047F8B9F1000F04D0BC
:1020D0004A465946304600F03FF80127B8F1000F54
:1020E00001D0781CC7B2B9F1000F01D0781CC7B27B
:1020F00096F88D00B84205D1A01C285C40F0010183
:10210000A01C29548E20805DB84205D1A01C285CFB
:1021100040F00201A01C29548F20805DB84205D1F7
:10212000A01C285C40F00401A01C29549020805D74
:10213000B84205D1A01C285C40F00801A01C29541D
:10214000E32028550621601C29540121E01C295454
:10215000032004B0BDE8F08F10B5931CCB5C03F0F6
:10216000010323B190F88D305B1C80F88D30931CF7
:10217000CB5C03F002032BB18E231B5C5B1CDCB237
:102180008E231C54931CCB5C03F004032BB18F23D0
:102190001B5C5B1CDCB28F231C54931CCB5C03F0D8
:1021A00008032BB190231B5C5B1CDCB290231C54F6
:1021B00010BD00002DE9FF4F87B00E46DDF858B086
:1021C0000A984FEA10280A98C0B2069015984FEA6C
:1021D00010291598C0B20590002400250020049015
:1021E0000390029001900027824600900123002274
:1021F00004213046FFF73BF9012304220621304633
:10220000FFF735F901230A2202213046FFF72FF9A3
:1022100001230C2207213046FFF729F9012313225D
:1022200002213046FFF723F901231522022130460F
:10223000FFF71DF9B8F1000F26D000BF21E008F12B
:10224000010001190998405C00F07F0A08F10100C3
:1022500001190998405C00F080000090009808B1D6
:10226000CDF810A0002508E03F48405D504502D160
:10227000705D401C7055681CC5B2172DF4DB601CE6
:10228000C4B206988442DADBB9F1000F26D00024EC
:1022900021E009F1010001191498405C00F07F0A67
:1022A00009F1010001191498405C00F080000090D1
:1022B000009808B1CDF80CA0002508E02A48405D40
:1022C000504502D1705D401C7055681CC5B2172D79
:1022D000F4DB601CC4B205988442DADB0120029072
:1022E000B8F1000F03D00298401CC0B20290B9F1BF
:1022F000000F03D00298401CC0B202901020019041
:10230000049810B10498019003E0039808B1039871
:10231000019000241BE0315D0298814215D1781CA8
:10232000C7B21148015D0198814208D10E48005D95
:1023300040F08001179838440BF8001005E00A4877
:10234000015D179838440BF80010601CC4B2172CBC
:10235000E1DB07F14000C1B217980BF800103846D6
:102360000BB0BDE8F08F0000341703082DE9FF4FD4
:10237000064692469B46DDE90E544FEA1A280D9810
:102380004FEA10290027012086F8820001218320CE
:102390008155842081558520815588208155B8F14B
:1023A000000F04D042463046019900F061F8B9F1BF
:1023B000000F04D04A465946304600F059F801272C
:1023C000B8F1000F01D0781CC7B2B9F1000F01D0ED
:1023D000781CC7B2E22028550021601C29548420B3
:1023E000805DB84206D1A01C285C40F00C01A01C06
:1023F000295405E0A01C285C40F00801A01C2954C9
:102400008520805DB84206D1A01C285C40F0030105
:10241000A01C295405E0A01C285C40F00201A01C6F
:1024200029548820805DB84206D1A01C285C40F069
:102430003001A01C295403E0A01C285CA11C685496
:1024400096F88200B84205D1A01C285C40F08001BB
:10245000A01C29548320805DB84205D1A01C285CB3
:1024600040F04001A01C2954022004B0BDE8F08FC8
:1024700010B5931CCB5C03F0800323B190F882303D
:102480005B1C80F88230931CCB5C03F040032BB1C3
:1024900083231B5C5B1CDCB283231C54931CCB5C2E
:1024A00003F00C030C2B05D184231B5C5B1CDCB2FA
:1024B00084231C54931CCB5C03F00303032B05D132
:1024C00085231B5C5B1CDCB285231C54931CCB5CFA
:1024D00003F03003302B05D188231B5C5B1CDCB27E
:1024E00088231C5410BD00002DE9FF4F81B00E461B
:1024F0009346DDE9104504984FEA10290F984FEAFA
:10250000102A0027002000908046012086F84F0006
:102510000121502081555120815552208155532051
:10252000815554208155552081555620815557207D
:102530008155592081555A2081555B2081555E2057
:1025400081554FF49670A6F86000B9F1000F04D0E1
:102550004A465946304600F02DF9BAF1000F04D032
:10256000524630460E9900F025F90127B9F1000FC7
:1025700001D0781CC7B2BAF1000F01D0781CC7B2E5
:102580008B480178681C215489484178A81C215443
:1025900087488178E81C2154012F01D000BF06E054
:1025A0001021281D21540021681D215425E0B9F176
:1025B000000F0CD009F104001BF80010281D215455
:1025C00009F105001BF80010681D215415E0BAF14F
:1025D000000F0CD00AF104010E98415C281D215413
:1025E0000AF105010E98415C681D215405E0102197
:1025F000281D21540021681D21545720805DB842B8
:1026000005D1A81D205C40F08001A81D2154582050
:10261000805DB84205D1A81D205C40F04001A81D96
:1026200021545920805DB84205D1A81D205C40F09E
:102630002001A81D21545A20805DB84205D1A81D53
:10264000205C40F01001A81D21545B20805DB84241
:1026500005D1A81D205C40F00801A81D21545C2074
:10266000805DB84205D1A81D205C40F00101A81D85
:102670002154B6F86000052190FBF1F0C1B2E81DCD
:10268000215496F84F00B84207D105F10800205CAC
:1026900040F0080105F1080021545020805DB84247
:1026A00007D105F10800205C40F0040105F10800A5
:1026B00021545120805DB84207D105F10800205C0B
:1026C00040F0020105F1080021545220805DB8421B
:1026D00007D105F10800205C40F0010105F1080078
:1026E0002154082105F1090021545320805DB8428E
:1026F00008D1012105F10B004044215408F10100EB
:1027000000F0FF085420805DB84208D1022105F195
:102710000B004044215408F1010000F0FF0855204F
:10272000805DB84208D1032105F10B0040442154DB
:1027300008F1010000F0FF085620805DB84208D182
:10274000042105F10B004044215408F1010000F080
:10275000FF0805F10A00205C40EA4810C1B205F10B
:102760000A0021545D20805DB84207D105F10900BF
:10277000205C40F0800105F1090021545D20805D5E
:10278000B84202D0B8F1000F07D005F10800205C74
:1027900040F0200105F10800215408F10A00C0B200
:1027A0000090009860306055009805B0BDE8F08F4B
:1027B00016170308F0B5002400230025161D8E5DB2
:1027C00016B9561D8E5D2EB15E26365C761CF7B2AC
:1027D0005E2637548E5C06F01F06062E07DCB0F826
:1027E00062601EB1B0F86260A0F86060F0BD961D36
:1027F0008E5D06F080062EB15726365C761CF7B249
:1028000057263754961D8E5D06F040062EB1582689
:10281000365C761CF7B258263754961D8E5D06F04E
:1028200020062EB15926365C761CF7B2592637544D
:10283000961D8E5D06F010062EB15A26365C761C6B
:10284000F7B25A263754961D8E5D06F008062EB153
:102850005B26365C761CF7B25B263754961D8E5D80
:1028600006F001062EB15C26365C761CF7B25C26BB
:10287000375402F108068E5D06F0080626B190F87E
:102880004F60761C80F84F6002F108068E5D06F0FE
:1028900004062EB15026365C761CF7B2502637540B
:1028A00002F108068E5D06F002062EB15126365C56
:1028B000761CF7B25126375402F108068E5D06F0F9
:1028C00001062EB15226365C761CF7B252263754DA
:1028D00002F108068E5D06F02006002E55D00A2370
:1028E00002F108068E5D06F080060EB19E1CF3B262
:1028F00002F108068E5D06F040060EB19E1CF3B292
:10290000D6188E5D7509002431E0D618761C264451
:102910008E5D012E05D15326365C761CF7B2532608
:102920003754D618761C26448E5D022E05D15426C7
:10293000365C761CF7B254263754D618761C2644DB
:102940008E5D032E05D15526365C761CF7B25526D2
:102950003754D618761C26448E5D042E05D1562693
:10296000365C761CF7B256263754661CF4B2AC427D
:10297000CBDBD618761E8E5D06F080062EB15D2666
:10298000365C761CF7B25D263754D61D8E5D06EB9D
:102990008606B0F86070BE4202DBB0F8606046B9EF
:1029A000D61D8E5D2EB1D61D8E5D06EB8606A0F877
:1029B000606000BF1AE72DE9FF4F06469046DDE94B
:1029C0000D950F9C4FEA182A4FEA192B00274FF458
:1029D000167026F8640F002006F8050C7080307120
:1029E0007071B071F071643E01216D2081556E20CF
:1029F00081556F2081557320815574208155BAF11E
:102A0000000F04D042463046019900F045F9BBF171
:102A1000000F04D04A463046039900F03DF90127E3
:102A2000BAF1000F01D0781CC7B2BBF1000F01D082
:102A3000781CC7B26D202855D821601C29545D210F
:102A4000A01C2954C421E01C29540121201D295413
:102A500096F86C00B84205D1E01D285C40F00401F6
:102A6000E01D29546D20805DB84205D1E01D285C31
:102A700040F00201E01D29546E20805DB84205D16E
:102A8000E01D285C40F00101E01D29546F20805DAD
:102A9000B84205D1A01D285C40F08001A01D29543A
:102AA0007020805DB84205D1A01D285C40F0010176
:102AB000A01D29547120805DB84205D1A01D285C5D
:102AC00040F00201A01D29547220805DB84205D15A
:102AD000A01D285C40F00401A01D29547320805DD6
:102AE000B84205D1A01D285C40F00801A01D295462
:102AF0007420805DB84205D1A01D285C40F04001E3
:102B0000A01D29547520805DB84207D104F108004A
:102B1000285C40F0200104F1080029547620805DF3
:102B2000B84207D104F10800285C40F0100104F11C
:102B3000080029547720805DB84207D104F10800CD
:102B4000285C40F0080104F1080029547820805DD9
:102B5000B84207D104F10800285C40F0040104F1F8
:102B6000080029547920805DB84207D104F108009B
:102B7000285C40F0020104F1080029547A20805DAD
:102B8000B84207D104F10800285C40F0010104F1CB
:102B9000080029547B20805DB84207D104F10B0066
:102BA000285C40F0800104F10B0029547C20805DFA
:102BB000B84207D104F10B00285C40F0400104F159
:102BC0000B0029547D20805DB84207D104F10B0031
:102BD000285C40F0040104F10B0029547E20805D44
:102BE000B84207D104F10B00285C40F0020104F167
:102BF0000B0029547F20805DB84207D104F10B00FF
:102C0000285C40F0010104F10B0029548020805D14
:102C1000B84205D1A01D285C40F01001A01D295428
:102C20008120805DB84207D104F10B00285C40F0A0
:102C3000080104F10B00295436F8640F052190FBBC
:102C4000F1F0C1B2601D2954E01D285C16F8051C86
:102C500040EA0110C1B2E01D29543079718801F4B5
:102C6000407140EAA10104F109002954B178401CE7
:102C70002954B079717940EA0110C1B204F10C0015
:102C80002954F079643E00F03F0104F10D0029540D
:102C90000D2004B0BDE8F08FF0B514460023220AE1
:102CA000E5B2D61D8E5D06F0040626B190F86C6084
:102CB000761C80F86C60D61D8E5D06F002062EB183
:102CC0006D26365C761CF7B26D263754D61D8E5DA8
:102CD00006F001062EB16E26365C761CF7B26E2623
:102CE0003754961D8E5D06F080062EB16F26365C39
:102CF000761CF7B26F263754961D8E5D06F00106DE
:102D00002EB17026365C761CF7B270263754961DAD
:102D10008E5D06F002062EB17126365C761CF7B287
:102D200071263754961D8E5D06F004062EB172266C
:102D3000365C761CF7B272263754961D8E5D06F00F
:102D400008062EB17326365C761CF7B2732637540C
:102D5000961D8E5D06F040062EB17426365C761CFC
:102D6000F7B274263754961D8E5D06F010062EB10C
:102D70008026365C761CF7B280263754561D8E5D51
:102D800006EB8603B0F864609E4202DCB0F8646033
:102D90001EB9A0F86430A0F86230072D7EDD02F184
:102DA00008068E5D06F020062EB17526365C761C70
:102DB000F7B27526375402F108068E5D06F010064C
:102DC0002EB17626365C761CF7B27626375402F1A1
:102DD00008068E5D06F008062EB17726365C761C56
:102DE000F7B27726375402F108068E5D06F0040626
:102DF0002EB17826365C761CF7B27826375402F16D
:102E000008068E5D06F002062EB17926365C761C29
:102E1000F7B27926375402F108068E5D06F00106F6
:102E20002EB17A26365C761CF7B27A26375402F138
:102E30000B068E5D06F080062EB17B26365C761C76
:102E4000F7B27B26375402F10B068E5D06F0400682
:102E50002EB17C26365C761CF7B27C26375402F104
:102E60000B068E5D06F004062EB17D26365C761CC0
:102E7000F7B27D26375402F10B068E5D06F002068E
:102E80002EB17E26365C761CF7B27E26375402F1D0
:102E90000B068E5D06F001063EB100E067E07F267E
:102EA000365C761CF7B27F26375402F10B068E5D36
:102EB00006F008062EB18126365C761CF7B2812614
:102EC0003754D61D8E5D331190F85F609E4202DC50
:102ED00090F85F600EB980F85F3002F10A068F5DEE
:102EE000761E8E5D06F0C00607EB8603B0F86660BE
:102EF0009E4202DCB0F866600EB9A0F8663002F1BE
:102F000009068E5D06F03F0390F868609E4202DB82
:102F100090F868600EB980F8683002F10C068E5D9A
:102F2000330990F869609E4202DC90F869600EB93E
:102F300080F8693002F10C068E5D06F00F0390F800
:102F40006A609E4202DC90F86A600EB980F86A30CE
:102F500002F10D068E5D06F03F0390F86B609E4215
:102F600002DC90F86B6056B980F86B3007E0002601
:102F700020F8666F8670C670067146716638F0BDBF
:102F800010B5931CCB5C0B4C2478A34210D1D31CFE
:102F9000CB5C084C6478A3420AD1131DCB5C054C72
:102FA000A478A34204D190F89A305B1C80F89A3040
:102FB00010BD00001C1703082DE9FF4F84B0054623
:102FC000DDE912680020039006984FEA102B119853
:102FD000000A0290002700244FF00109CDF8049068
:102FE000A24600200090012085F8890001218B2055
:102FF00041558A2041558C204155BBF1000F04D02A
:103000005A462846059900F087F8029820B12846CC
:10301000029A079900F080F80127BBF1000F01D058
:10302000781CC7B2029808B1781CC7B200220221EE
:10303000304600F0F1FA039003984FEA102A039803
:10304000C0B200900098002852D000244CE00AEB57
:103050000400401C305C602803D195F88900B84218
:103060001DD00AEB0400401C305C612803D18A208B
:10307000405DB84213D00AEB0400401C305C652868
:1030800003D18B20405DB84209D00AEB0400401CFC
:10309000305C66281AD18C20405DB84216D120469B
:1030A000E11704EB5171C910A4EBC1020121914059
:1030B00008EB0902521CB25C1143CAB208EB0901C9
:1030C000491C725409F10100C0B20190E11704EBF0
:1030D0005171C910A4EBC101072903D109F1010005
:1030E00000F0FF09601CC4B200988442AFDB03E02B
:1030F000002008B0BDE8F08F0198012801D1002020
:10310000F7E7019840F0E00006F808000F2108F109
:10311000010031540198ECE72DE9F04F06460D46C9
:1031200017464FF0000BD9460024A046A2460022C5
:103130000221284600F070FA83464FEA1B280BF064
:10314000FF0AE85D00F01F00401E00F0FF09BAEB27
:10315000C90F03DD4FEAC9604FEA106ABAF1000FE8
:103160007CD0002478E008EB0402521CAA5C602AA0
:1031700016D1E21704EB5272D310BA1C1A44AA5C9F
:10318000E31704EB5373DB10A4EBC30C012303FA26
:103190000CF31A4022B196F88900401C86F8890089
:1031A00008EB0402521CAA5C612A17D1E21704EB57
:1031B0005272D310BA1C1A44AA5CE31704EB53737F
:1031C000DB10A4EBC30C012303FA0CF31A402AB161
:1031D0008A20805D401CC1B28A20815508EB040220
:1031E000521CAA5C652A17D1E21704EB5272D31065
:1031F000BA1C1A44AA5CE31704EB5373DB10A4EB6C
:10320000C30C012303FA0CF31A402AB18B20805D12
:10321000401CC1B28B20815508EB0402521CAA5CF1
:10322000662A17D1E21704EB5272D310BA1C1A4463
:10323000AA5CE31704EB5373DB10A4EBC30C01236C
:1032400003FA0CF31A402AB18C20805D401CC1B2F5
:103250008C208155601CC4B2544584DBBDE8F08FDE
:103260002DE9FF4F05469B46DDE90E7602984FEAB1
:1032700010290D984FEA102A4FF000080124012070
:1032800085F8890001218B2041558A2041558C20E9
:103290004155B9F1000F16D009F101010198405CC8
:1032A0000F2805D14A4628460199FFF735FF0AE065
:1032B00009F101010198405C0E2804D14A462846D4
:1032C000019900F060F8BAF1000F16D00AF1010080
:1032D0001BF800000F2805D1524659462846FFF733
:1032E0001BFF0AE00AF101001BF800000E2804D1C0
:1032F00052465946284600F046F84FF00108B9F109
:10330000000F03D008F1010000F0FF08BAF1000F30
:1033100003D008F1010000F0FF0895F8890040454E
:1033200005D160213019401C3954601CC4B28A2078
:10333000405D404505D161213019401C3954601C65
:10334000C4B28B20405D404505D165213019401C39
:103350003954601CC4B28C20405D404505D16621C3
:103360003019401C3954601CC4B2012C03D1002018
:1033700004B0BDE8F08F44F0E000B8550E21701C99
:1033800039542046F4E770B5002400238D5C05F025
:103390001F056D1EECB200BF2FE0D518AD1C4D5DB2
:1033A000602D05D190F889506D1C80F8895022E07D
:1033B000D518AD1C4D5D612D06D18A252D5C6D1C87
:1033C000EEB28A252E5416E0D518AD1C4D5D652D44
:1033D00006D18B252D5C6D1CEEB28B252E540AE098
:1033E000D518AD1C4D5D662D05D18C252D5C6D1C51
:1033F000EEB28C252E545D1CEBB2A342CDDB70BD2A
:1034000010B502460020002100BF04E0535C0344D5
:10341000D8B24B1CD9B27F29F8DB0346C41700EBA6
:1034200014642412A0EB0424644282F87F4000203C
:10343000002106E001F18003D35C0344D8B24B1CA9
:10344000D9B27F29F6DB0346C41700EB14642412BB
:10345000A0EB0424644282F8FF4010BD2DE9FC413A
:103460000746884614461D460026B7F86260B7F83E
:103470006000B04201DDB7F86060B7F86400B042A8
:1034800001DDB7F86460B8F1010F2BD1B6F5167FF6
:1034900008D10023594A12213846CDE90045FDF7ED
:1034A000F5FFA8E0B6F5917F08DB0023544A12210E
:1034B0003846CDE90045FDF7E9FF9CE0962E08DB94
:1034C0000023504A12213846CDE90045FDF7DEFFC2
:1034D00091E000234C4A12213846CDE90045FDF722
:1034E000D5FF88E0B8F1020F2BD1B6F5167F08D1D1
:1034F0000023434A12213846CDE90045FDF7C6FFB7
:1035000079E0B6F5917F08DB00233E4A1221384668
:10351000CDE90045FDF7BAFF6DE0962E08DB0023EC
:10352000394A12213846CDE90045FDF7AFFF62E088
:103530000023364A12213846CDE90045FDF7A6FFA3
:1035400059E0B8F1030F2BD1B6F5167F08D100234F
:103550002C4A12213846CDE90045FDF797FF4AE095
:10356000B6F5917F08DB0023274A12213846CDE9C2
:103570000045FDF78BFF3EE0962E08DB0023234A33
:1035800012213846CDE90045FDF780FF33E00023E6
:103590001F4A12213846CDE90045FDF777FF2AE0A2
:1035A000B6F5167F08D10023184A12213846CDE916
:1035B0000045FDF76BFF1EE0B6F5917F08DB0023A9
:1035C000124A12213846CDE90045FDF75FFF12E0AF
:1035D000962E08DB00230E4A12213846CDE900451D
:1035E000FDF754FF07E000230A4A12213846CDE9CF
:1035F0000045FDF74BFFBDE8FC8100007416030891
:103600008616030898160308AA160308BC160308B2
:10361000CE160308E0160308F0B503460C4615461F
:1036200000220026002784215878FF2803D193F830
:103630008000022801D00020F0BD64E0585C00F05A
:103640001F02585C4709A74256D1032C40D1E5B967
:10365000481C185CDFF8B8C09CF800C0604514D165
:10366000881C185CDFF8A8C09CF801C060450CD12C
:10367000C81C185CDFF898C09CF802C0604504D1F3
:1036800002EB012086B23046D6E7012D1CD1481C42
:10369000185CDFF880C09CF800C0604514D1881C1D
:1036A000185CDFF870C09CF801C060450CD1C81CE4
:1036B000185CDFF860C09CF802C0604504D102EBE2
:1036C000012086B23046B7E78818401C81B21AE064
:1036D000072C0CD1481C185CA84204D102EB012035
:1036E00086B23046A8E78818401C81B20BE002EB96
:1036F000012086B230469FE712B9002630469BE78C
:103700008818401C81B2FD2998DD0026304693E7D9
:1037100016170308191703080146002000BF03E02D
:1037200000220A54421CD0B21728F9DB002005E021
:10373000002301F117021354421CD0B20E28F7DB0C
:10374000002005E0002301F125021354421CD0B2F1
:103750000E28F7DB002005E0002301F133021354AB
:10376000421CD0B20E28F7DB002005E0002301F157
:1037700041021354421CD0B20E28F7DB002005E0B2
:10378000002301F14F021354421CD0B21028F7DB82
:103790000022603101F8012C0A804A808A80CA80A8
:1037A0000A724A728A72CA726039002005E00023E8
:1037B00001F16C021354421CD0B21628F7DB002032
:1037C00005E0002301F182021354421CD0B2072805
:1037D000F7DB002005E0002301F189021354421CAD
:1037E000D0B20428F7DB002005E0002301F18D02B0
:1037F0001354421CD0B20428F7DB002005E000235C
:1038000001F191021354421CD0B20928F7DB0022C7
:1038100081F89A20704700002DE9FE4F83460E463E
:1038200017461D46002002900190002482468046E3
:10383000814600904FF0010900BF04E0FE48005DA2
:103840002855601CC4B2082CF8DBFC4800788100C5
:10385000FA484078403801EBE0002872F74949788F
:1038600040394801C11700EB11610912A0EB012298
:10387000F24989784039114469720020A872012008
:10388000E872287300206873A873E873082028740E
:103890001C206874002406E0E948015D04F1120070
:1038A0002954601CC4B2022CF6DBB9F1030F09D114
:1038B000307D397D884202D0802028750AE0307D35
:1038C000287507E0B9F1020F02D1307D287501E0BB
:1038D00080202875B9F1030F0DD1707D797D884264
:1038E00004DD787D6875B87DA87510E0707D687519
:1038F000B07DA8750BE0B9F1020F04D1707D687539
:10390000B07DA87503E0792068754420A875B9F1E9
:10391000030F09D1F07DF97D884202D07820E87547
:103920000AE0F07DE87507E0B9F1020F02D1F07D01
:10393000E87501E07820E875B9F1030F04D1307E15
:10394000397E0840287607E0B9F1020F02D1307EB7
:10395000287601E00A202876B9F1030F29D1012049
:103960000090002409E004F11900315C385C8142C8
:1039700001D000200090601CC4B20A2CF3DB009838
:1039800001280AD1002405E004F11900315C295412
:10399000601CC4B20A2CF7DB24E0002406E0A9482E
:1039A000015D04F119002954601CC4B20A2CF6DB35
:1039B00018E0B9F1020F0AD1002405E004F1190062
:1039C000315C2954601CC4B20A2CF7DB0AE00024E5
:1039D00006E09C48015D04F119002954601CC4B242
:1039E0000A2CF6DBB9F1030F12D116F8230F17F8E2
:1039F000231F084005F8230F707879780840687015
:103A0000B078233EB978233F0840A870233D14E0E6
:103A1000B9F1020F0AD116F8230F05F8230F7078B9
:103A20006870B078233EA870233D06E0202005F89A
:103A3000230F00206870A870233DB9F1030F3AD11D
:103A40004FF00008002433E04FF0000A2BE026205E
:103A500000EB4A00385C262101EB4401715C88428E
:103A60001DD1272000EB4A00385C272101EB4401DF
:103A7000715C884213D1262000EB4A00385C262175
:103A800001EB48016854272000EB4A00385C2721ED
:103A900001EB4801685408F1010000F0FF080AF149
:103AA000010000F0FF0ABAF1080FD0DB601CC4B2BD
:103AB000082CC9DB24E0B9F1020F16D1002411E073
:103AC000262000EB4400305C262101EB44016854C1
:103AD000272000EB4400305C272101EB44016854AF
:103AE000601CC4B2082CEBDB0AE0002406E0564858
:103AF000015D04F126002954601CC4B2102CF6DBD1
:103B00004FF41670ABF86200002002900190B9F1FA
:103B1000020F3FDB00243BE004EBC400482101EB33
:103B20004000305C90BB04EBC40001EB4000401C43
:103B3000305C58BB04EBC40001EB4000801C305CDF
:103B400020BB04EBC40001EB4000C01C305CFD282E
:103B50001CD1601CC0B20290BBF8621004EBC40020
:103B6000482202EB40000930305C00EB8000B1EBF2
:103B7000400F0BDD04EBC400482101EB400009308D
:103B8000305C00EB80004000ABF86200601CC4B207
:103B9000032CC1DBB9F1030F3FD100243BE004EB60
:103BA000C400482101EB4000385C90BB04EBC4002A
:103BB00001EB4000401C385C58BB04EBC40001EB37
:103BC0004000801C385C20BB04EBC40001EB4000CB
:103BD000C01C385CFD281CD1601CC0B20190BBF831
:103BE000621004EBC400482202EB40000930385C4C
:103BF00000EB8000B1EB400F0BDD04EBC40048216B
:103C000001EB40000930385C00EB80004000ABF86D
:103C10006200601CC4B2032CC1DBB9F1020F06DBE9
:103C2000029820B9019810B99620ABF862004FF0C5
:103C30000109029870B109E0501603084216030802
:103C4000581603085A1603086416030809F1010000
:103C500000F0FF09019818B109F1010000F0FF0917
:103C600036232A4601215846FFF7F8FB48232A4607
:103C700002215846FFF7F2FB002406E06F48015D81
:103C800004F15A002954601CC4B2122CF6DB18202F
:103C900005F85F0F58206870BBF862000A2190FB9E
:103CA000F1F028715F3DB9F1020F4EDB4FF00008D3
:103CB000002424E004EBC400482101EB4000305C08
:103CC000D8B904EBC40001EB4000401C305CA0B943
:103CD00004EBC40001EB4000801C305C68B904EBCD
:103CE000C40001EB4000C01C305CFD2805D104EB92
:103CF000C40001EB400000F0FF08601CC4B2032CBC
:103D0000D8DBB8F1000F20D008F10700305C5F3538
:103D1000A87008F10800305CE87008F10500305C1C
:103D200015F85F19884204DD08F10500305C85F85C
:103D30005F0008F10600305C95F86010884204DAF4
:103D400008F10600305C85F86000B9F1030F5DD121
:103D50004FF00008002424E004EBC400482101EBEC
:103D60004000385CD8B904EBC40001EB4000401CB3
:103D7000385CA0B904EBC40001EB4000801C385C47
:103D800068B904EBC40001EB4000C01C385CFD289E
:103D900005D104EBC40001EB400000F0FF08601CFB
:103DA000C4B2032CD8DBB8F1000F2FD008F1050006
:103DB000385C95F85F10884204DD08F10500385C36
:103DC00085F85F0008F10600385C95F860108842BD
:103DD00004DA08F10600385C85F8600008F1070095
:103DE000385C95F86110884204DD08F10700385C02
:103DF00085F8610008F10800385C95F86210884287
:103E000004DA08F10800385C85F86200002406E056
:103E10000B48015D04F16C002954601CC4B2122CE3
:103E2000F6DB002406E00748015D04F17100295427
:103E3000601CC4B20B2CF6DBBDE8FE8FF216030843
:103E40000417030845160308F0B58FB004460D4665
:103E500004F56D722946204612F07DFD04F546708A
:103E6000FFF75AFC04F56D7204F546712046FDF724
:103E7000D3F90026E888C21ECBA1204603F0E8FE55
:103E800000BF73E00F2000EB061104F56D70405C7D
:103E90000E2101EB061204F56D71895C0D2202EB17
:103EA000061304F56D72D25C0C2303EB061704F5C0
:103EB0006D73DB5DCDE90A32CDE90C100B2000EB10
:103EC000061104F56D70405C0A2101EB061204F541
:103ED0006D71895C092202EB061304F56D72D25CE8
:103EE000082303EB061704F56D73DB5DCDE906329D
:103EF000CDE90810072000EB061104F56D70405C59
:103F0000062101EB061204F56D71895C052202EBB6
:103F1000061304F56D72D25C042303EB061704F557
:103F20006D73DB5DCDE90232CDE90410032000EBB7
:103F3000061104F56D70405C022101EB061204F5D8
:103F40006D71895CCDE90010012000EB061104F5CC
:103F50006D70435C002000EB061104F56D70425C4F
:103F60009749204603F074FE701CC6B2102E89DB00
:103F7000B4F8780338B9B4F87A13A4F87813B4F81D
:103F80007A13A4F87C134FF48061A86B016194F854
:103F90008703012805D1A86B006940F00101A86BD7
:103FA000016194F88C03012805D1A86B006940F0E9
:103FB0000201A86B016194F88B03012805D1A86B5D
:103FC000006940F01001A86B016194F88503012895
:103FD00005D1A86B006940F00801A86B016194F855
:103FE0008603012805D1A86B006940F00401A86B85
:103FF0000161B4F87C03B0F5167F05DBA86B00699E
:1040000040F02001A86B0161B4F87C03B0F5E17FBA
:1040100005DBA86B006940F04001A86B0161B4F8B2
:104020007C03B0F5B97F05DBA86B006940F0800127
:10403000A86B0161B4F87803B0F5967F05DBA86B37
:10404000006940F48071A86B0161B4F87803E1283D
:1040500005DBA86B006940F40071A86B016194F85E
:10406000A50340B994F8A60328B994F8A70310B99A
:1040700094F8A80328B1A86B006940F40061A86B0C
:10408000016194F8A103012805D1A86B006940F4EF
:104090000051A86B016194F8A203012805D1A86B17
:1040A000006940F48041A86B016194F8A3030128E2
:1040B00005D1A86B006940F40041A86B016194F838
:1040C000A403012805D1A86B006940F48031A86BD6
:1040D000016194F8A903012805D1A86B006940F497
:1040E0000031A86B016194F8AA03012805D1A86BDF
:1040F000006940F48021A86B016194F8AE030128A7
:1041000003D094F8AF03012805D1A86B006940F4EF
:104110008011A86B016194F8B003012805D1A86B48
:10412000006940F40021A86B016194F89A0301280A
:1041300005D1A86B006940F40011A86B016194F8E7
:104140009B03012805D1A86B006940F48001A86B8E
:10415000016194F87203012805D1A86B006940F051
:104160000061A86B016194F87103012805D1A86B67
:10417000006940F08061A86B016101260DE004F246
:104180002F30805D012806D1A86B006940F0805176
:10419000A86B016103E0701CC6B20E2EEFDB00BFFE
:1041A00000200FB0F0BD0000547820256420526537
:1041B000616420456469642053746172743A20001C
:1041C000942303082DE9F04192B004460E464FF0C7
:1041D00000080027002010900F904FF480720021FB
:1041E00004F56D7000F04AFF4FF48072002104F274
:1041F000B44000F043FF4FF48072002104F2B45049
:1042000000F03CFF002010900F9000BF5BE0109882
:104210000079052855D11098806B007A052850D177
:104220001098806B407A00284BD1022F01D0781C67
:10423000C7B21098C088C31EF088421C84A12046D3
:1042400003F006FD012F06D104F56D72204610998A
:1042500012F081FB35E004F2B4422046109912F0CE
:104260007AFB04F54670FFF757FA4FF4807200218D
:1042700004F2B45000F002FF04F2B45304F2B4426A
:1042800004F56D7104F54670FFF7C6FA04F2B450F8
:1042900004F2B44304F56D7204F5467100902046B3
:1042A000FDF706F94FF4807204F2B45104F56D7015
:1042B00000F0D4FE4FF48072002104F2B44000F00C
:1042C000DDFE10980F9010AA0FA9304611F0DEFB0A
:1042D00000289CD00025012F19DC04F54670FFF75B
:1042E0001BFA04F2B45304F2B44204F56D7104F500
:1042F0004670FFF791FA04F2B45004F2B44304F5A7
:104300006D7204F5467100902046FDF7D1F804F275
:10431000B450FFF775F811AA04F2B451204611F019
:104320000DFB8046002211A9304611F0F4FBF08805
:10433000421C50A1204603F08BFC002576E00F20A4
:1043400000EB051104F2B450405C0E2101EB0512A4
:1043500004F2B451895C0D2202EB051304F2B4524D
:10436000D25C0C2303EB051C04F2B45313F80C309D
:10437000CDE90A32CDE90C100B2000EB051104F257
:10438000B450405C0A2101EB051204F2B451895C7F
:10439000092202EB051304F2B452D25C082303EBAA
:1043A000051C04F2B45313F80C30CDE90632CDE904
:1043B0000810072000EB051104F2B450405C062100
:1043C00001EB051204F2B451895C052202EB0513DE
:1043D00004F2B452D25C042303EB051C04F2B45380
:1043E00013F80C30CDE90232CDE90410032000EBC4
:1043F000051104F2B450405C022101EB051204F2F5
:10440000B451895CCDE90010012000EB051104F2E4
:10441000B450435C002000EB051104F2B450425C40
:104420001C49204603F014FC681CC5B2102D86DB25
:1044300011A8434604F2B45231460090204612F0CF
:10444000CDF80521706B8171002012B0BDE8F081BC
:1044500052782025642045646964204D616E61674F
:10446000653A2052656164205478202564204544D3
:104470004944000052782025642047656E657261CA
:1044800074656420456469642053746172743A20D1
:10449000000000009423030870470122C1680A70DD
:1044A000704710B504460121606A0170204611F082
:1044B000F9FC10BD10B50446012160690170204669
:1044C00011F040FE10BD2DE9F04106460D466C6B23
:1044D0000027B84600BF00BFE868007809286FD2FF
:1044E000DFE800F0E40514425697B6C8DA00082168
:1044F000E8680170284611F08CFC2946304611F01E
:1045000080FC2946304611F05FFC10E1E07910B9DB
:104510004FF0010827E0207808B1012000E00020DA
:1045200070B10821E8680170284611F072FC294634
:10453000304611F066FC2946304611F045FC12E089
:10454000A079052802D04FF001080CE0207A01285C
:1045500005D1E07A18B10521E868017003E0294629
:10456000304611F0BAFBE2E0E07A38B90221E8689F
:1045700001702946304611F0B0FB08E00921E868D7
:1045800001700120E0702946304606F0D9F8CEE0EF
:10459000207808B1012000E0002090B1284611F0F9
:1045A00004FE0821E8680170284611F032FC294613
:1045B000304611F026FC2946304611F005FC27E074
:1045C00074E0E07A38B90221E86801702946304683
:1045D00011F083FB1CE0207918B90521E86801700F
:1045E00016E0A079052802D1207A012807D00621FB
:1045F000E86801702946304611F0E6FB08E0A07932
:10460000052805D10721E8680170284612F0E5F871
:104610008DE0E07A38B90221E86801702946304619
:1046200011F05BFB13E0A079052802D1207A012864
:1046300007D00621E86801702946304611F0C4FB16
:1046400005E02079012802D10421E86801706EE0BC
:10465000E07950B1A079052807D10221E8680170FE
:104660002946304611F039FB03E02946304611F067
:10467000EFFB5CE0E07A38B90221E8680170294676
:10468000304611F02AFB06E00321E8680170294654
:10469000304611F058FD4AE0207830B90621E8682C
:1046A00001702946304611F08FFB40E0207808B1B8
:1046B000012000E0002098B1284611F076FD00208E
:1046C000E0700821E8680170284611F0A2FB294635
:1046D000304611F096FB2946304611F075FB25E077
:1046E000A079052801D1E07980B9284611F05DFD57
:1046F0002946304611F085FB0020E0700621E8686D
:1047000001702946304611F05FFB0FE0207A28B196
:10471000207A022802D0207A052804D1284611F0F8
:1047200044FD012702E0E07A00B9012700BF00BF85
:10473000B8F1000F06D00621E8680170294630461E
:1047400011F042FB47B10020E0700221E8680170DF
:104750002946304611F0C1FABDE8F0812DE9F34F4A
:1047600081B00C46A56B266C0027B846B946BA4600
:10477000BB460020009000BF00BF00BF00BF00BFCD
:104780000090606A00780C2871D2DFE800F07006B3
:10479000161A46598084B8D9E6F00921606A01707A
:1047A0002146019811F09BFB2146019811F080FBF6
:1047B0002146019812F040F96AE10521606A017012
:1047C00066E1287D01280FD00921606A0170214629
:1047D000019811F084FB2146019811F069FB2146F4
:1047E000019812F029F917E0A06B007A022811D184
:1047F000687A38B90421606A01702146019812F084
:104800008BF809E0687A012801D1012704E04FF014
:10481000010B01E04FF0010B3AE1287D01280ED099
:104820000921606A01702146019811F058FB214668
:10483000019811F03DFB2146019812F0FDF827E1A7
:10484000287D012814D02146019812F01DF9092174
:10485000606A01702146019811F041FB21460198E0
:1048600011F026FB2146019812F0E6F80EE0DDE09B
:10487000A878012806D1287A052803D10B21606A7F
:10488000017003E02146019810F068FC00E103216B
:10489000606A0170FCE0287D01281AD0287D02287A
:1048A00003D101202875804628E02146019812F0A6
:1048B000EBF80921606A01702146019811F00FFBA5
:1048C0002146019811F0F4FA2146019812F0B4F84B
:1048D00014E0307908B9B07A38B10A21606A017001
:1048E0002146019811F0F0FF08E0A87810B94FF0C8
:1048F000010803E02146019812F01BF8C8E0687D2A
:1049000008B1012000E0002038B10621606A017082
:104910002146019811F0B0FA11E0287D01280ED04F
:104920000921606A01702146019811F0D8FA2146E8
:10493000019811F0BDFA2146019812F07DF8A7E028
:10494000287D012806D10821606A0170204611F0F7
:104950008FFA01E0002028759AE0287D01281BD0FD
:10496000287D022804D101202875814625E025E014
:104970002146019812F088F80921606A01702146E9
:10498000019811F0ACFA2146019811F091FA2146F4
:10499000019812F051F810E0A87810B94FF0010911
:1049A0000BE02146019812F0A3F82146019811F07E
:1049B0001AFF2146019811F0BCFF69E0287D01280B
:1049C0001AD0287D022803D10120287582462CE0C8
:1049D0002146019812F058F80921606A01702146B9
:1049E000019811F07CFA2146019811F061FA2146F4
:1049F000019812F021F818E0A879052813DB7078E7
:104A0000012803D10721606A01700EE0707838B97F
:104A10000A21606A01702146019811F055FF04E0F7
:104A20000120009001E00120009031E0A87808B159
:104A3000012000E0002038B12146019811F01CFA55
:104A40000B21606A017022E0287D01281FD0287D9B
:104A5000022809D1012028750C21606A01702146C5
:104A6000019812F01EF812E02146019812F00CF89D
:104A70000921606A01702146019811F030FA21463F
:104A8000019811F015FA2146019811F0D5FF00BFE9
:104A900000BF009860B1A87810B94FF0010A07E094
:104AA0002146019812F024F82146019811F09BFE4E
:104AB000BBF1000F0BD0287A48B1687A012801D1E8
:104AC000012704E0687A10B90521606A0170BAF123
:104AD000000F06D00C21606A01702146019811F088
:104AE000E0FFB9F1000F06D00C21606A0170214689
:104AF000019811F0D6FFB8F1000F06D00C21606AC2
:104B000001702146019811F0CCFF37B10221606A93
:104B100001702146019811F0D7FFBDE8FE8F2DE905
:104B2000F04706460D466C6B0027B846B94600BFF5
:104B300000BF00BF68690078012806D002280CD0A9
:104B400003282DD0042878D150E005216869017030
:104B50002946304611F04CFB75E02078012807D13A
:104B60000521686901702946304611F041FB16E0C5
:104B7000207908B9607808B9A07830B10321686954
:104B80000170284611F0D7FA09E02079012806D1F2
:104B90000421686901702946304611F0BDFA52E0DF
:104BA000607830B9284611F0BFFA022168690170B7
:104BB0001BE0207801280AD1284611F0B5FA05211A
:104BC000686901702946304611F012FB0DE020792A
:104BD00058B1A07848B9284611F0A6FA04216869AE
:104BE00001702946304611F097FA2CE0207808B180
:104BF000012000E0002008B101271DE0A07808B1E5
:104C0000012000E0002010B14FF0010814E02079ED
:104C100080B9607808B1012000E0002010B14FF0A9
:104C2000010809E0A07810B9012705E005E04FF080
:104C3000010901E04FF0010905E0207810B90221D7
:104C40006869017000BF00BFB9F1000F07D02946A5
:104C5000304611F0E7FA2946304611F073F9B8F101
:104C6000000F05D0032168690170284611F063FA2E
:104C700037B10521686901702946304611F0B8FA4C
:104C8000BDE8F0872DE9F04704460D4616461F465D
:104C9000DDF820804FF000093B4642463146284669
:104CA000D4F808C0E04781464846BDE8F0872DE9C2
:104CB000FF4F83B082469946DDE910B8DDE913461F
:104CC00000200290306023466A46DAF808C0DDE929
:104CD0000401E04702901298012827D19DF80000B6
:104CE00000EA09008DF80000601EC4B21DF804003F
:104CF00000EA0B000DF80400C8EBC400C7B20025A1
:104D00000AE01DF80510B940306808433060A7F18B
:104D10000800C7B2681CC5B2A542F2DB1DF804103A
:104D200041FA08F130680843306026E09DF8000041
:104D300000EA0B008DF80000601EC4B21DF80400EC
:104D400000EA09000DF80400C8EBC400C7B225460C
:104D50000AE01DF80510B940306808433060A7F13B
:104D60000800C7B2681EC5B2002DF2DC9DF8001025
:104D700041FA08F1306808433060029807B0BDE896
:104D8000F08F2DE9F04705460E4617469846DDE9B7
:104D900008944FF0000A0123224639463046D5F8E0
:104DA00008C0E0478246207800EA080040FA09F08F
:104DB00020705046BDE8F0872DE9F04704460D46C7
:104DC00016461F46DDF820804FF000093B4642465C
:104DD00031462846D4F80CC0E04781464846BDE835
:104DE000F0872DE9FF4F83B081468B469846DDE979
:104DF00010A6DDE913470020029023466A46D9F841
:104E000008C058460599E04702901298012832D10F
:104E10009DF8000020EA0800611EC6EBC10227FAD7
:104E200002F101EA080108438DF8000001250AE0BB
:104E3000601B401EC6EBC00027FA00F0C0B20DF8A0
:104E40000500681CC5B2601EA842F1DC1DF8000018
:104E500020EA0A0007FA06F101EA0A010843611E86
:104E60000DF8010023466A46D9F80CC0584605994A
:104E7000E047029031E09DF8000020EA0A0007FABE
:104E800006F101EA0A0108438DF8000001250AE055
:104E9000601B401EC6EBC00027FA00F0C0B20DF840
:104EA0000500681CC5B2601EA842F1DC1DF80000B8
:104EB00020EA0800611EC6EBC10227FA02F101EAEE
:104EC00008010843611E0DF8010023466A46D9F81F
:104ED0000CC058460599E0470290029807B0BDE81B
:104EE000F08F2DE9F84F05460E4617461C46DDE9C2
:104EF0000A984FF0000ACDF80080FF2C0ED0012355
:104F00006A4639463046D5F808C0E0479DF80000AB
:104F1000A04308FA09F121400843009001236A46A2
:104F200039463046D5F80CC0E04782465046BDE8C9
:104F3000F88F2DE9F84306460C4615469946DDF8EC
:104F400020800027102D78D2DFE805F01213757647
:104F500014151C23494D080C51706F5D0121E06B45
:104F600001706DE00121206C8170206CC17067E0E0
:104F700066E065E064E0A179091FC8B2002114F081
:104F800099FC5DE0A179091FC8B2012114F092FCDF
:104F900056E06946204610F0AEFDF8B90098007959
:104FA000E0B90098406B0079012810D1A06B407ADD
:104FB000012802D0A06B808928B10098406B017D48
:104FC000A06B017006E00021A06B017002E00121DE
:104FD000A06B01702146304611F01CFD30E000202E
:104FE00013F048FE2CE0012013F044FE28E0606B33
:104FF0008079052806D021463046FFF7E3F80521E1
:10500000606B81711CE021463046FEF71DFF69464A
:10501000204610F070FD30B90098007918B90421CD
:105020000098406B81710BE007E009E04FF0FF3121
:10503000A06B016104E003E002E06FF0020700BF33
:1050400000BF3846BDE8F88330B504460020C4F8F8
:10505000B416C4F8B826C4F8BC3630BD03465AB1FD
:1050600003B109B90020704704E0087818705B1C90
:10507000491C521E002AF8D10120F4E7034642B130
:105080000BB90020704702E019705B1C521E002A09
:10509000FAD10120F6E72DE9F04F87B005460E461C
:1050A0000020049003903078052804D06FF00300AE
:1050B00007B0BDE8F08FB0680690069800F184074D
:1050C000069800F58478069800F5C67A069800F5EB
:1050D0006774069800F5846B069800F504790698C5
:1050E00000F52570059006A9384610F004FDA0BB18
:1050F0000698007990B9287E78BB069400233A463A
:1051000021462846FBF725FD01233A465946284605
:10511000FBF71FFD0121A06D01701EE006980079CC
:1051200003281AD1287E012817D1B06806900223DF
:105130003A4628460699FBF70CFD002342462846CE
:105140000699FBF706FD0123524628460699FBF710
:1051500000FD0121D8F8540001700698406B0079D9
:10516000012801D00020A3E7287E01281FD1414655
:10517000069800F085F804904A464146DDE905307E
:1051800000F036F803909DF80C009DF8101088424E
:105190002CD09DF8100048B39DF81000CDE9009088
:1051A00042462846DDE9053100F024FA1EE0394682
:1051B000204600F065F804904A4639462046059B93
:1051C00000F016F803909DF80C009DF8101088422E
:1051D0000CD09DF8100048B19DF81000CDE900906A
:1051E0003A4621462846059B00F004FA00205FE776
:1051F00030B5044600200D79052D29D14D6EA5420C
:1052000008D125790DB9012039E02579032D36D152
:10521000072034E04D6E9D420BD15D6EA5422ED12C
:1052200025790DB902202AE02579032D27D1082000
:1052300025E04D6E954222D1556EA5421FD12579AC
:105240000DB903201BE02579032D18D1092016E0A4
:105250000D790D2D13D14D6EA54201D104200EE024
:105260004D6E9D4204D15D6EA54208D1052006E039
:105270004D6E954203D1556EA54200D1062030BD3A
:1052800010B502460023107900287DD10879052841
:10529000FBD1886B007A052803D1886B007D01283B
:1052A00001D0002010BD886B007C00F0010030B1FF
:1052B000886B007C00F0200008B1012395E1886B29
:1052C000008A00F4807000287ED0506C0089B0F510
:1052D000117F3DDB506C007C652821D005DC78B364
:1052E000602809D0612830D110E0662821D06A28D2
:1052F00003D06B2829D10AE000BF886B008A00F434
:10530000005008B1022300E0032320E000BF886BB7
:10531000008A00F4804008B1022300E0032316E075
:10532000886B008A00F4004008B1022300E00323E8
:105330000DE0886B006900F4803010B1022301E0B9
:1053400001E0032303E0002301E0032300BF4CE15D
:10535000506C0089B0F5917F74DB506C4078032865
:1053600071D1506C807841283FD0506C80784228B1
:105370003BD0506C8078432837D0506C80784728D9
:1053800033D0506C807800E08CE04B282DD0506CEE
:1053900080784F2829D0506C8078572825D0506CC1
:1053A00080785B2821D0506C807817281DD0506CF5
:1053B00080781B2819D0506C8078012815D0506C4B
:1053C0008078022811D000E055E0506C80780328E6
:1053D0000BD0506C8078072807D0506C80780B2851
:1053E00003D0506C80780F283FD1506C007C65282A
:1053F00021D005DC40B3602809D0612832D110E00B
:10540000662824D06A2803D06B282BD10AE000BF7D
:10541000886B008A00F4005008B1012300E00323E8
:1054200022E000BF886B008A00F4804008B10123AD
:1054300000E0032318E0886B008A00F4004020B1EC
:10544000012303E015E012E00AE003230CE0886B7F
:10545000006900F4803008B1012300E0032303E079
:10546000002301E0032300BFBFE00123BDE00123CF
:10547000BBE00123B9E0886B008A00F4806078B15A
:10548000506C0089B0F5117F01DB0323ADE0506C57
:105490000089B0F5917F01DB0323A6E00123A4E09E
:1054A0000123A2E0107900287AD108790D2877D15C
:1054B000486D407800EB4000801C4D4C205C00F0B3
:1054C000200008B1042390E0506CC07C012805D175
:1054D000506C00892D2801DA062386E0506C407854
:1054E00003280FD1506C0089B0F5AA7F0ADD486D02
:1054F000407800EB40003E4C205C00F0300008B9E2
:10550000062372E0506C0489486C0089844201DDF6
:1055100006236AE0486D407800EB4000401C344CA4
:10552000205C00F0040060B9486D407800EB40005A
:10553000801C205C00F0400018B9486C40780128BD
:105540000FD1506C4078022803D0506C407801286D
:1055500005D1486C8078FF2801D1042345E005235C
:1055600043E0486C40780F2805D0506C4478486C74
:105570004078844209D1486C8078FF280ED0506C66
:105580008478486C8078844208D0506C4078032836
:1055900002D1062329E003E0052326E0042324E0CA
:1055A000107903281FD1087905281CD1486D40784F
:1055B00000EB4000801C0E4C205C00F0200000B18D
:1055C0000723906D407800EB4000401C084C205CA5
:1055D00000F0040008B1072300E00723506B0079B6
:1055E00018B9072301E000205CE618465AE60000DF
:1055F000FE1503082DE9F04782460C4615461F4666
:10560000DDE908864FF000090A2E30D2DFE806F007
:105610009D05306606316707326800BF00BF686EBF
:10562000A04207D04FF0010900232A4621465046E8
:10563000FBF78FFAB9F1010F19D1012E08D1E888D3
:10564000C31EE088421C42A1504602F001FB0EE05E
:10565000042E06D1E088421C43A1504602F0F8FA1D
:1056600005E0E888C21E48A1504602F0F1FA6CE05D
:1056700000BF00BF786EA04207D04FF001090023A1
:105680003A4621465046FBF764FA686EB84207D0A6
:105690004FF0010900232A4639465046FBF759FAD4
:1056A000B9F1010F19D1022E08D1E888C31EE08894
:1056B000421C3DA1504602F0CBFA0EE0052E06D169
:1056C000E088421C3FA1504602F0C2FA05E0E8889B
:1056D000C21E45A1504602F0BBFA36E000BF00BF33
:1056E000D8F86400A04207D04FF0010900234246D9
:1056F00021465046FBF72DFA686E404507D04FF023
:10570000010900232A4641465046FBF722FAB9F127
:10571000010F19D1032E08D1E888C31EE088421C6E
:105720003AA1504602F094FA0EE0062E06D1E08827
:10573000421C3DA1504602F08BFA05E0E888C21EEB
:1057400042A1504602F084FA00BF00BFBDE8F087D6
:105750004E657720526F7574653A20527825642D16
:1057600054782564000000004E657720526F7574F0
:10577000653A20527825642D4C6F676963566964D9
:10578000656F5478000000004E657720526F757485
:10579000653A204C6F676963566964656F52782D6E
:1057A00054782564000000004E657720526F7574B0
:1057B000653A20527825642D436F6C6F722D5478B2
:1057C000256400004E657720526F7574653A20524B
:1057D0007825642D436F6C6F722D4C6F676963562B
:1057E0006964656F547800004E657720526F757458
:1057F000653A204C6F676963566964656F52782D0E
:10580000436F6C6F722D5478256400004E657720CD
:10581000526F7574653A20527825642D5363616C1C
:1058200065722D54782564004E657720526F75742B
:10583000653A20527825642D5363616C65722D4C56
:105840006F676963566964656F5478004E657720A9
:10585000526F7574653A204C6F6769635669646569
:105860006F52782D5363616C65722D5478256400F6
:105870002DE9F04104460D4616464FF0000825F08C
:105880000307D4F8F4022844B0F52B7F0ED204F1BC
:105890002000D4F8F41208443060BD4200D03D1D11
:1058A000D4F8F4022844C4F8F40206E004A1204627
:1058B00002F0CEF900BF00BFFEE74046BDE8F08130
:1058C0004552524F523A20676C6F62616C2073747C
:1058D00061746963206275666665722065786861C7
:1058E00075737465642E000070B588B006460C466A
:1058F00000200790069091A207CA03AB07C30025BA
:10590000002002900FE10798007905287ED10798C2
:10591000806CC079062828D1079890F97C00401C3B
:1059200018B302A80021CDE900100798006840785C
:10593000854A42EA00610F2304223046FFF721FA2C
:1059400000250DE08149681C085C9DF8081088421C
:1059500004D17E48415DA06C817405E0E81CC5B2AD
:105960007A48405DFF28EDD100BFA06C807C78496B
:1059700051F82010A06C016041F60241A06C8180BA
:105980000798806B8079012876DBA06C0168079806
:10599000806C006881424FD1A06C817C0798806C3C
:1059A000807C814248D1A06C417C0798806C407C0F
:1059B000814241D1A06C017C0798806C007C8142BF
:1059C0003AD1A06C017D0798806C007D814233D173
:1059D000A06C017B0798806C007B81422CD1A06C6D
:1059E000417A0798806C407A814225D1A06C017A77
:1059F0000798806C007A81421ED1A06CC17907980B
:105A0000806CC079814217D1A06C00E089E0817A76
:105A10000798806C807A81420ED1A06CC17A079879
:105A2000806CC07A814207D10798806C808841F6EB
:105A300002410840884260D0A16C079A906C1822FD
:105A4000FFF70CFB0798806C407C401E9DF81010FF
:105A500060F302018DF810100798806C407CC01E26
:105A600006281AD2DFE800F015110D09040300BF63
:105A700013208DF8130011E03FE00B208DF8130088
:105A80000CE007208DF8130008E003208DF81300C8
:105A900004E001208DF8130000E000BF00BF0120EA
:105AA00003AB024600903046079907F07DFB07984C
:105AB000806C407A012803D00798806C407A40B906
:105AC0000798806C007B00F001010798806C0173DF
:105AD00007E00798806C007B40F002010798806C1B
